{
  "contractName": "Dwarna",
  "abi": [
    {
      "inputs": [
        {
          "internalType": "address",
          "name": "dataAddress",
          "type": "address"
        }
      ],
      "stateMutability": "nonpayable",
      "type": "constructor"
    },
    {
      "inputs": [],
      "name": "owner",
      "outputs": [
        {
          "internalType": "address",
          "name": "",
          "type": "address"
        }
      ],
      "stateMutability": "view",
      "type": "function"
    },
    {
      "inputs": [
        {
          "internalType": "address",
          "name": "data",
          "type": "address"
        }
      ],
      "name": "changeLogic",
      "outputs": [],
      "stateMutability": "nonpayable",
      "type": "function"
    },
    {
      "inputs": [
        {
          "internalType": "address",
          "name": "new_owner",
          "type": "address"
        }
      ],
      "name": "changeOwner",
      "outputs": [],
      "stateMutability": "nonpayable",
      "type": "function"
    },
    {
      "inputs": [
        {
          "internalType": "string",
          "name": "id",
          "type": "string"
        }
      ],
      "name": "createStudy",
      "outputs": [],
      "stateMutability": "nonpayable",
      "type": "function"
    },
    {
      "inputs": [
        {
          "internalType": "string",
          "name": "study",
          "type": "string"
        },
        {
          "internalType": "address",
          "name": "participant",
          "type": "address"
        }
      ],
      "name": "addConsentToStudy",
      "outputs": [],
      "stateMutability": "nonpayable",
      "type": "function"
    },
    {
      "inputs": [
        {
          "internalType": "string",
          "name": "study",
          "type": "string"
        },
        {
          "internalType": "address",
          "name": "participant",
          "type": "address"
        }
      ],
      "name": "withdrawConsentFromStudy",
      "outputs": [],
      "stateMutability": "nonpayable",
      "type": "function"
    },
    {
      "inputs": [
        {
          "internalType": "string",
          "name": "study",
          "type": "string"
        },
        {
          "internalType": "address",
          "name": "participant",
          "type": "address"
        }
      ],
      "name": "hasConsented",
      "outputs": [
        {
          "internalType": "bool",
          "name": "",
          "type": "bool"
        }
      ],
      "stateMutability": "view",
      "type": "function"
    },
    {
      "inputs": [
        {
          "internalType": "string",
          "name": "study",
          "type": "string"
        },
        {
          "internalType": "address",
          "name": "participant",
          "type": "address"
        }
      ],
      "name": "getConsentTimestamps",
      "outputs": [
        {
          "internalType": "uint256[]",
          "name": "",
          "type": "uint256[]"
        }
      ],
      "stateMutability": "view",
      "type": "function"
    },
    {
      "inputs": [
        {
          "internalType": "string",
          "name": "study",
          "type": "string"
        },
        {
          "internalType": "address",
          "name": "participant",
          "type": "address"
        }
      ],
      "name": "getConsentTrail",
      "outputs": [
        {
          "internalType": "uint256[]",
          "name": "",
          "type": "uint256[]"
        },
        {
          "internalType": "bool[]",
          "name": "",
          "type": "bool[]"
        }
      ],
      "stateMutability": "view",
      "type": "function"
    },
    {
      "inputs": [
        {
          "internalType": "string",
          "name": "study",
          "type": "string"
        },
        {
          "internalType": "address",
          "name": "participant",
          "type": "address"
        },
        {
          "internalType": "uint256",
          "name": "timestamp",
          "type": "uint256"
        }
      ],
      "name": "GetConsentAt",
      "outputs": [
        {
          "internalType": "bool",
          "name": "",
          "type": "bool"
        }
      ],
      "stateMutability": "view",
      "type": "function"
    },
    {
      "inputs": [
        {
          "internalType": "string",
          "name": "study",
          "type": "string"
        }
      ],
      "name": "getConsentingParticipants",
      "outputs": [
        {
          "internalType": "address[]",
          "name": "",
          "type": "address[]"
        }
      ],
      "stateMutability": "view",
      "type": "function"
    },
    {
      "inputs": [
        {
          "internalType": "string",
          "name": "study",
          "type": "string"
        }
      ],
      "name": "getAllStudyParticipants",
      "outputs": [
        {
          "internalType": "address[]",
          "name": "",
          "type": "address[]"
        }
      ],
      "stateMutability": "view",
      "type": "function"
    }
  ],
  "bytecode": "0x60806040523480156200001157600080fd5b5060405162001af338038062001af3833981810160405281019062000037919062000129565b336000806101000a81548173ffffffffffffffffffffffffffffffffffffffff021916908373ffffffffffffffffffffffffffffffffffffffff16021790555080600160006101000a81548173ffffffffffffffffffffffffffffffffffffffff021916908373ffffffffffffffffffffffffffffffffffffffff160217905550506200015b565b600080fd5b600073ffffffffffffffffffffffffffffffffffffffff82169050919050565b6000620000f182620000c4565b9050919050565b6200010381620000e4565b81146200010f57600080fd5b50565b6000815190506200012381620000f8565b92915050565b600060208284031215620001425762000141620000bf565b5b6000620001528482850162000112565b91505092915050565b611988806200016b6000396000f3fe608060405234801561001057600080fd5b50600436106100b45760003560e01c80639489b4e5116100715780639489b4e5146101a0578063a6f9dae1146101d0578063a72bf59a146101ec578063d53c7d471461021c578063d582fa1514610238578063e511a1f214610254576100b4565b80630a370caf146100b95780633a67d0b0146100e9578063494aba2b146101055780636f0acd871461013557806380a026b6146101665780638da5cb5b14610182575b600080fd5b6100d360048036038101906100ce9190610f87565b610284565b6040516100e091906110c0565b60405180910390f35b61010360048036038101906100fe919061110e565b610334565b005b61011f600480360381019061011a9190611171565b610406565b60405161012c91906111fb565b60405180910390f35b61014f600480360381019061014a9190611216565b610528565b60405161015d9291906113ee565b60405180910390f35b610180600480360381019061017b9190610f87565b610720565b005b61018a61083e565b6040516101979190611434565b60405180910390f35b6101ba60048036038101906101b59190611216565b610862565b6040516101c7919061144f565b60405180910390f35b6101ea60048036038101906101e5919061110e565b6109c2565b005b61020660048036038101906102019190610f87565b610a93565b60405161021391906110c0565b60405180910390f35b61023660048036038101906102319190611216565b610b43565b005b610252600480360381019061024d9190611216565b610c64565b005b61026e60048036038101906102699190611216565b610d85565b60405161027b91906111fb565b60405180910390f35b60606000600160009054906101000a900473ffffffffffffffffffffffffffffffffffffffff1673ffffffffffffffffffffffffffffffffffffffff1663e230166a846040518263ffffffff1660e01b81526004016102e391906114f9565b600060405180830381865afa158015610300573d6000803e3d6000fd5b505050506040513d6000823e3d601f19601f8201168201806040525081019061032991906115f8565b905080915050919050565b60008054906101000a900473ffffffffffffffffffffffffffffffffffffffff1673ffffffffffffffffffffffffffffffffffffffff163373ffffffffffffffffffffffffffffffffffffffff16146103c2576040517f08c379a00000000000000000000000000000000000000000000000000000000081526004016103b99061168d565b60405180910390fd5b80600160006101000a81548173ffffffffffffffffffffffffffffffffffffffff021916908373ffffffffffffffffffffffffffffffffffffffff16021790555050565b600080600160009054906101000a900473ffffffffffffffffffffffffffffffffffffffff1673ffffffffffffffffffffffffffffffffffffffff1663b4c5228286866040518363ffffffff1660e01b81526004016104669291906116ad565b600060405180830381865afa158015610483573d6000803e3d6000fd5b505050506040513d6000823e3d601f19601f820116820180604052508101906104ac9190611836565b905060005b815181101561051a57838282815181106104ce576104cd61187f565b5b60200260200101516000015103610507578181815181106104f2576104f161187f565b5b60200260200101516020015192505050610521565b8080610512906118dd565b9150506104b1565b5060009150505b9392505050565b6060806000600160009054906101000a900473ffffffffffffffffffffffffffffffffffffffff1673ffffffffffffffffffffffffffffffffffffffff1663b4c5228286866040518363ffffffff1660e01b815260040161058a9291906116ad565b600060405180830381865afa1580156105a7573d6000803e3d6000fd5b505050506040513d6000823e3d601f19601f820116820180604052508101906105d09190611836565b90506000815167ffffffffffffffff8111156105ef576105ee610e5c565b5b60405190808252806020026020018201604052801561061d5781602001602082028036833780820191505090505b5090506000825167ffffffffffffffff81111561063d5761063c610e5c565b5b60405190808252806020026020018201604052801561066b5781602001602082028036833780820191505090505b50905060005b835181101561070f5783818151811061068d5761068c61187f565b5b6020026020010151600001518382815181106106ac576106ab61187f565b5b6020026020010181815250508381815181106106cb576106ca61187f565b5b6020026020010151602001518282815181106106ea576106e961187f565b5b6020026020010190151590811515815250508080610707906118dd565b915050610671565b508181945094505050509250929050565b60008054906101000a900473ffffffffffffffffffffffffffffffffffffffff1673ffffffffffffffffffffffffffffffffffffffff163373ffffffffffffffffffffffffffffffffffffffff16146107ae576040517f08c379a00000000000000000000000000000000000000000000000000000000081526004016107a59061168d565b60405180910390fd5b600160009054906101000a900473ffffffffffffffffffffffffffffffffffffffff1673ffffffffffffffffffffffffffffffffffffffff16631bc2b1de826040518263ffffffff1660e01b815260040161080991906114f9565b600060405180830381600087803b15801561082357600080fd5b505af1158015610837573d6000803e3d6000fd5b5050505050565b60008054906101000a900473ffffffffffffffffffffffffffffffffffffffff1681565b60606000600160009054906101000a900473ffffffffffffffffffffffffffffffffffffffff1673ffffffffffffffffffffffffffffffffffffffff1663b4c5228285856040518363ffffffff1660e01b81526004016108c39291906116ad565b600060405180830381865afa1580156108e0573d6000803e3d6000fd5b505050506040513d6000823e3d601f19601f820116820180604052508101906109099190611836565b90506000815167ffffffffffffffff81111561092857610927610e5c565b5b6040519080825280602002602001820160405280156109565781602001602082028036833780820191505090505b50905060005b82518110156109b6578281815181106109785761097761187f565b5b6020026020010151600001518282815181106109975761099661187f565b5b60200260200101818152505080806109ae906118dd565b91505061095c565b50809250505092915050565b60008054906101000a900473ffffffffffffffffffffffffffffffffffffffff1673ffffffffffffffffffffffffffffffffffffffff163373ffffffffffffffffffffffffffffffffffffffff1614610a50576040517f08c379a0000000000000000000000000000000000000000000000000000000008152600401610a479061168d565b60405180910390fd5b806000806101000a81548173ffffffffffffffffffffffffffffffffffffffff021916908373ffffffffffffffffffffffffffffffffffffffff16021790555050565b60606000600160009054906101000a900473ffffffffffffffffffffffffffffffffffffffff1673ffffffffffffffffffffffffffffffffffffffff1663a72bf59a846040518263ffffffff1660e01b8152600401610af291906114f9565b600060405180830381865afa158015610b0f573d6000803e3d6000fd5b505050506040513d6000823e3d601f19601f82011682018060405250810190610b3891906115f8565b905080915050919050565b60008054906101000a900473ffffffffffffffffffffffffffffffffffffffff1673ffffffffffffffffffffffffffffffffffffffff163373ffffffffffffffffffffffffffffffffffffffff1614610bd1576040517f08c379a0000000000000000000000000000000000000000000000000000000008152600401610bc89061168d565b60405180910390fd5b600160009054906101000a900473ffffffffffffffffffffffffffffffffffffffff1673ffffffffffffffffffffffffffffffffffffffff1663d53c7d4783836040518363ffffffff1660e01b8152600401610c2e9291906116ad565b600060405180830381600087803b158015610c4857600080fd5b505af1158015610c5c573d6000803e3d6000fd5b505050505050565b60008054906101000a900473ffffffffffffffffffffffffffffffffffffffff1673ffffffffffffffffffffffffffffffffffffffff163373ffffffffffffffffffffffffffffffffffffffff1614610cf2576040517f08c379a0000000000000000000000000000000000000000000000000000000008152600401610ce99061168d565b60405180910390fd5b600160009054906101000a900473ffffffffffffffffffffffffffffffffffffffff1673ffffffffffffffffffffffffffffffffffffffff1663d582fa1583836040518363ffffffff1660e01b8152600401610d4f9291906116ad565b600060405180830381600087803b158015610d6957600080fd5b505af1158015610d7d573d6000803e3d6000fd5b505050505050565b6000600160009054906101000a900473ffffffffffffffffffffffffffffffffffffffff1673ffffffffffffffffffffffffffffffffffffffff1663e511a1f284846040518363ffffffff1660e01b8152600401610de49291906116ad565b602060405180830381865afa158015610e01573d6000803e3d6000fd5b505050506040513d601f19601f82011682018060405250810190610e259190611925565b905092915050565b6000604051905090565b600080fd5b600080fd5b600080fd5b600080fd5b6000601f19601f8301169050919050565b7f4e487b7100000000000000000000000000000000000000000000000000000000600052604160045260246000fd5b610e9482610e4b565b810181811067ffffffffffffffff82111715610eb357610eb2610e5c565b5b80604052505050565b6000610ec6610e2d565b9050610ed28282610e8b565b919050565b600067ffffffffffffffff821115610ef257610ef1610e5c565b5b610efb82610e4b565b9050602081019050919050565b82818337600083830152505050565b6000610f2a610f2584610ed7565b610ebc565b905082815260208101848484011115610f4657610f45610e46565b5b610f51848285610f08565b509392505050565b600082601f830112610f6e57610f6d610e41565b5b8135610f7e848260208601610f17565b91505092915050565b600060208284031215610f9d57610f9c610e37565b5b600082013567ffffffffffffffff811115610fbb57610fba610e3c565b5b610fc784828501610f59565b91505092915050565b600081519050919050565b600082825260208201905092915050565b6000819050602082019050919050565b600073ffffffffffffffffffffffffffffffffffffffff82169050919050565b600061102782610ffc565b9050919050565b6110378161101c565b82525050565b6000611049838361102e565b60208301905092915050565b6000602082019050919050565b600061106d82610fd0565b6110778185610fdb565b935061108283610fec565b8060005b838110156110b357815161109a888261103d565b97506110a583611055565b925050600181019050611086565b5085935050505092915050565b600060208201905081810360008301526110da8184611062565b905092915050565b6110eb8161101c565b81146110f657600080fd5b50565b600081359050611108816110e2565b92915050565b60006020828403121561112457611123610e37565b5b6000611132848285016110f9565b91505092915050565b6000819050919050565b61114e8161113b565b811461115957600080fd5b50565b60008135905061116b81611145565b92915050565b60008060006060848603121561118a57611189610e37565b5b600084013567ffffffffffffffff8111156111a8576111a7610e3c565b5b6111b486828701610f59565b93505060206111c5868287016110f9565b92505060406111d68682870161115c565b9150509250925092565b60008115159050919050565b6111f5816111e0565b82525050565b600060208201905061121060008301846111ec565b92915050565b6000806040838503121561122d5761122c610e37565b5b600083013567ffffffffffffffff81111561124b5761124a610e3c565b5b61125785828601610f59565b9250506020611268858286016110f9565b9150509250929050565b600081519050919050565b600082825260208201905092915050565b6000819050602082019050919050565b6112a78161113b565b82525050565b60006112b9838361129e565b60208301905092915050565b6000602082019050919050565b60006112dd82611272565b6112e7818561127d565b93506112f28361128e565b8060005b8381101561132357815161130a88826112ad565b9750611315836112c5565b9250506001810190506112f6565b5085935050505092915050565b600081519050919050565b600082825260208201905092915050565b6000819050602082019050919050565b611365816111e0565b82525050565b6000611377838361135c565b60208301905092915050565b6000602082019050919050565b600061139b82611330565b6113a5818561133b565b93506113b08361134c565b8060005b838110156113e15781516113c8888261136b565b97506113d383611383565b9250506001810190506113b4565b5085935050505092915050565b6000604082019050818103600083015261140881856112d2565b9050818103602083015261141c8184611390565b90509392505050565b61142e8161101c565b82525050565b60006020820190506114496000830184611425565b92915050565b6000602082019050818103600083015261146981846112d2565b905092915050565b600081519050919050565b600082825260208201905092915050565b60005b838110156114ab578082015181840152602081019050611490565b838111156114ba576000848401525b50505050565b60006114cb82611471565b6114d5818561147c565b93506114e581856020860161148d565b6114ee81610e4b565b840191505092915050565b6000602082019050818103600083015261151381846114c0565b905092915050565b600067ffffffffffffffff82111561153657611535610e5c565b5b602082029050602081019050919050565b600080fd5b60008151905061155b816110e2565b92915050565b600061157461156f8461151b565b610ebc565b9050808382526020820190506020840283018581111561159757611596611547565b5b835b818110156115c057806115ac888261154c565b845260208401935050602081019050611599565b5050509392505050565b600082601f8301126115df576115de610e41565b5b81516115ef848260208601611561565b91505092915050565b60006020828403121561160e5761160d610e37565b5b600082015167ffffffffffffffff81111561162c5761162b610e3c565b5b611638848285016115ca565b91505092915050565b7f4f6e6c7920746865206f776e65722063616e20646f2074686973000000000000600082015250565b6000611677601a8361147c565b915061168282611641565b602082019050919050565b600060208201905081810360008301526116a68161166a565b9050919050565b600060408201905081810360008301526116c781856114c0565b90506116d66020830184611425565b9392505050565b600067ffffffffffffffff8211156116f8576116f7610e5c565b5b602082029050602081019050919050565b600080fd5b60008151905061171d81611145565b92915050565b61172c816111e0565b811461173757600080fd5b50565b60008151905061174981611723565b92915050565b60006040828403121561176557611764611709565b5b61176f6040610ebc565b9050600061177f8482850161170e565b60008301525060206117938482850161173a565b60208301525092915050565b60006117b26117ad846116dd565b610ebc565b905080838252602082019050604084028301858111156117d5576117d4611547565b5b835b818110156117fe57806117ea888261174f565b8452602084019350506040810190506117d7565b5050509392505050565b600082601f83011261181d5761181c610e41565b5b815161182d84826020860161179f565b91505092915050565b60006020828403121561184c5761184b610e37565b5b600082015167ffffffffffffffff81111561186a57611869610e3c565b5b61187684828501611808565b91505092915050565b7f4e487b7100000000000000000000000000000000000000000000000000000000600052603260045260246000fd5b7f4e487b7100000000000000000000000000000000000000000000000000000000600052601160045260246000fd5b60006118e88261113b565b91507fffffffffffffffffffffffffffffffffffffffffffffffffffffffffffffffff820361191a576119196118ae565b5b600182019050919050565b60006020828403121561193b5761193a610e37565b5b60006119498482850161173a565b9150509291505056fea26469706673582212208d62de16cb9839cc6670dcb3b15567e9cbaaed733374139a36fa616bff92db5664736f6c634300080d0033",
  "immutableReferences": {},
  "source": "// SPDX-License-Identifier: MIT\npragma solidity ^0.8.13;\n\nimport \"./DwarnaData.sol\";\n\n/// @title      Study - a contract that contains consent details for a study.\n/// @author     Jacques Vella Critien\n/// @dev        Version 0.3 - last updated 2022-05-19\n///             Upgraded to include multiple studies in 1 contract\ncontract Dwarna {\n\n    /// @notice Holds the creator's address\n    address public owner;\n\n    /// @notice Holds the data contract\n    DwarnaData dwarnaData;\n\n    /// @author Jacques Vella Critien\n    /// @notice Create the study with its most basic details.\n    ///         No consent information is collected initially.\n    /// @param  dataAddress The address of the data contract\n    constructor(address dataAddress) { \n        owner = msg.sender;\n        dwarnaData = DwarnaData(dataAddress);\n    }\n\n    /// @notice Ensures the request is coming from the data contract's address\n    modifier isOwner(){\n        require(msg.sender == owner, \"Only the owner can do this\");\n        _;\n    }\n\n    /// @notice Changes the data contract address\n    ///         This allows to change the data\n    /// @param  data The address of the new data contract address\n    function changeLogic(address data) public isOwner {\n        dwarnaData = DwarnaData(data);\n    }\n\n    /// @notice Changes the owner of this contract\n    /// @param  new_owner The address of the new owner\n    function changeOwner(address new_owner) public isOwner {\n        owner = new_owner;\n    }\n\n    /// @notice Create new study\n    /// @param  id The id of the study\n    function createStudy(string memory id) public isOwner {\n        dwarnaData.addStudy(id);\n    }\n\n    /// @notice The centerpiece of dynamic consent.\n    ///         The sender gives consent to the use of their sample in the study.\n    /// @dev    The function sets the mapping value that corresponds to the participant to true, whatever the initial value.\n    ///         If the participant has not consented yet, or withdrew said consent, add them to the list of participants first.\n    ///         This avoids 'double-spending' consent, or giving consent twice in quick succession.\n    /// @param  study The id of the study to check\n    /// @param  participant The address of the participant\n    function addConsentToStudy(string memory study, address participant) public isOwner {\n        dwarnaData.addConsentToStudy(study, participant);\n    }\n\n   /// @notice The centerpiece of dynamic consent.\n    ///         The sender withdraws consent to the use of their sample in the study.\n    /// @dev    The function sets the mapping value that corresponds to the participant to false, whatever the initial value.\n    ///         If the participant had given consent and is now withdrawing it, remove the participant from the list of consenting participants.\n    ///         The deletion uses the swap technique.\n    /// @param  study The id of the study to check\n    /// @param  participant The address of the participant\n    function withdrawConsentFromStudy(string memory study, address participant) public isOwner {\n        dwarnaData.withdrawConsentFromStudy(study, participant);\n    }\n\n    /// @notice Check whether the participant has consented to the use of their sample in this study.\n    /// @param  participant The address of the participant that will be queried.\n    /// @param  study The id of the study to check\n    /// @param  participant The address of the participant\n    /// @return A boolean representing whether the participant has an active consent for the use of his data in the study.\n    function hasConsented(string memory study, address participant) public view returns(bool) {\n        return dwarnaData.hasConsented(study, participant);\n    }\n\n    /// @notice Get a list of timestamps when a participant's consent was changed.\n    /// @dev    At the time of writing (2018-12-05), Solidity does not allow returning dynamic arrays or structs.\n    ///         The solution is to return a list of timestamps for a participant.\n    ///         These timestamps can be used to construct a timeline by querying each timestamp.\n    /// @param  study The study to be queried.\n    /// @param  participant The address of the participant that will be queried.\n    /// @return A list of timestamps when the participant updated their consent status.\n    function getConsentTimestamps(string memory study, address participant) public view returns(uint [] memory) {\n        DwarnaData.Consent [] memory consent_trail = dwarnaData.getStudyConsentTrailOfParticipant(study, participant);\n        uint [] memory timestamps = new uint[](consent_trail.length);\n\n        for (uint i = 0; i < consent_trail.length; i++) {\n            timestamps[i] = consent_trail[i].timestamp;\n        }\n\n        return timestamps;\n    }\n\n    /// @notice Get consent trail\n    /// @dev    At the time of writing (2018-12-05), Solidity does not allow returning dynamic arrays or structs.\n    ///         The solution is to return a list of timestamps for a participant.\n    ///         These timestamps can be used to construct a timeline by querying each timestamp.\n    /// @param  study The study to be queried.\n    /// @param  participant The address of the participant that will be queried.\n    /// @return A list of timestamps when the participant updated their consent status.\n    function getConsentTrail(string memory study, address participant) public view returns(uint[] memory, bool[] memory) {\n        DwarnaData.Consent [] memory consent_trail = dwarnaData.getStudyConsentTrailOfParticipant(study, participant);\n        uint[] memory timestamps = new uint[](consent_trail.length);\n        bool[] memory statuses = new bool[](consent_trail.length);\n\n        for (uint i = 0; i < consent_trail.length; i++) {\n            timestamps[i] = consent_trail[i].timestamp;\n            statuses[i] = consent_trail[i].consent;\n        }\n\n        return (timestamps, statuses);\n    }\n\n    /// @notice Get the participant's consent at a particular timestamp.\n    ///         If the participant did not change their consent at this timestamp, false is returned.\n    /// @param  study The study to be queried.\n    /// @param  participant The address of the participant that will be queried.\n    /// @param  timestamp The timestamp whose consent status needs to be known.\n    /// @return The participant's consent status set at the given timestamp, or false if the participant did not update it at that moment.\n    function GetConsentAt(string memory study, address participant, uint timestamp) public view returns(bool) {\n        DwarnaData.Consent [] memory consent_trail = dwarnaData.getStudyConsentTrailOfParticipant(study, participant);\n\n        for (uint i = 0; i < consent_trail.length; i++) {\n            if (consent_trail[i].timestamp == timestamp) {\n                return consent_trail[i].consent;\n            }\n        }\n\n        return false;\n    }\n\n    /// @notice Get the list of participants that are participating in the study.\n    /// @dev    The function double-checks the list of participants, ensuring that they are indeed consenting participants.\n    /// @param  study The study to be queried.\n    /// @return A list of participants that have consented to the use of their data in the study.\n    function getConsentingParticipants(string memory study) public view returns(address[] memory) {\n        address[] memory participants = dwarnaData.getStudyParticipants(study);\n\n        return participants;\n    }\n\n\n    /// @notice Get the list of all participants that ever participated in the study.\n    /// @dev    The function double-checks the list of participants, ensuring that they are indeed consenting participants.\n    /// @param  study The study to be queried.\n    /// @return A list of participants that have consented to the use of their data in the study.\n    function getAllStudyParticipants(string memory study) public view returns(address[] memory) {\n        address[] memory participants = dwarnaData.getAllStudyParticipants(study);\n\n        return participants;\n    }\n\n}\n",
  "sourcePath": "/home/node/truffle/contracts/Dwarna.sol",
  "compiler": {
    "name": "solc",
    "version": "0.8.13+commit.abaa5c0e.Emscripten.clang"
  },
  "schemaVersion": "3.4.7",
  "updatedAt": "2022-06-15T21:22:44.190Z",
  "devdoc": {
    "author": "Jacques Vella Critien",
    "details": "Version 0.3 - last updated 2022-05-19             Upgraded to include multiple studies in 1 contract",
    "kind": "dev",
    "methods": {
      "GetConsentAt(string,address,uint256)": {
        "params": {
          "participant": "The address of the participant that will be queried.",
          "study": "The study to be queried.",
          "timestamp": "The timestamp whose consent status needs to be known."
        },
        "returns": {
          "_0": "The participant's consent status set at the given timestamp, or false if the participant did not update it at that moment."
        }
      },
      "addConsentToStudy(string,address)": {
        "details": "The function sets the mapping value that corresponds to the participant to true, whatever the initial value.         If the participant has not consented yet, or withdrew said consent, add them to the list of participants first.         This avoids 'double-spending' consent, or giving consent twice in quick succession.",
        "params": {
          "participant": "The address of the participant",
          "study": "The id of the study to check"
        }
      },
      "changeLogic(address)": {
        "params": {
          "data": "The address of the new data contract address"
        }
      },
      "changeOwner(address)": {
        "params": {
          "new_owner": "The address of the new owner"
        }
      },
      "constructor": {
        "author": "Jacques Vella Critien",
        "params": {
          "dataAddress": "The address of the data contract"
        }
      },
      "createStudy(string)": {
        "params": {
          "id": "The id of the study"
        }
      },
      "getAllStudyParticipants(string)": {
        "details": "The function double-checks the list of participants, ensuring that they are indeed consenting participants.",
        "params": {
          "study": "The study to be queried."
        },
        "returns": {
          "_0": "A list of participants that have consented to the use of their data in the study."
        }
      },
      "getConsentTimestamps(string,address)": {
        "details": "At the time of writing (2018-12-05), Solidity does not allow returning dynamic arrays or structs.         The solution is to return a list of timestamps for a participant.         These timestamps can be used to construct a timeline by querying each timestamp.",
        "params": {
          "participant": "The address of the participant that will be queried.",
          "study": "The study to be queried."
        },
        "returns": {
          "_0": "A list of timestamps when the participant updated their consent status."
        }
      },
      "getConsentTrail(string,address)": {
        "details": "At the time of writing (2018-12-05), Solidity does not allow returning dynamic arrays or structs.         The solution is to return a list of timestamps for a participant.         These timestamps can be used to construct a timeline by querying each timestamp.",
        "params": {
          "participant": "The address of the participant that will be queried.",
          "study": "The study to be queried."
        },
        "returns": {
          "_0": "A list of timestamps when the participant updated their consent status."
        }
      },
      "getConsentingParticipants(string)": {
        "details": "The function double-checks the list of participants, ensuring that they are indeed consenting participants.",
        "params": {
          "study": "The study to be queried."
        },
        "returns": {
          "_0": "A list of participants that have consented to the use of their data in the study."
        }
      },
      "hasConsented(string,address)": {
        "params": {
          "participant": "The address of the participant",
          "study": "The id of the study to check"
        },
        "returns": {
          "_0": "A boolean representing whether the participant has an active consent for the use of his data in the study."
        }
      },
      "withdrawConsentFromStudy(string,address)": {
        "details": "The function sets the mapping value that corresponds to the participant to false, whatever the initial value.         If the participant had given consent and is now withdrawing it, remove the participant from the list of consenting participants.         The deletion uses the swap technique.",
        "params": {
          "participant": "The address of the participant",
          "study": "The id of the study to check"
        }
      }
    },
    "title": "Study - a contract that contains consent details for a study.",
    "version": 1
  },
  "userdoc": {
    "kind": "user",
    "methods": {
      "GetConsentAt(string,address,uint256)": {
        "notice": "Get the participant's consent at a particular timestamp.         If the participant did not change their consent at this timestamp, false is returned."
      },
      "addConsentToStudy(string,address)": {
        "notice": "The centerpiece of dynamic consent.         The sender gives consent to the use of their sample in the study."
      },
      "changeLogic(address)": {
        "notice": "Changes the data contract address         This allows to change the data"
      },
      "changeOwner(address)": {
        "notice": "Changes the owner of this contract"
      },
      "constructor": {
        "notice": "Create the study with its most basic details.         No consent information is collected initially."
      },
      "createStudy(string)": {
        "notice": "Create new study"
      },
      "getAllStudyParticipants(string)": {
        "notice": "Get the list of all participants that ever participated in the study."
      },
      "getConsentTimestamps(string,address)": {
        "notice": "Get a list of timestamps when a participant's consent was changed."
      },
      "getConsentTrail(string,address)": {
        "notice": "Get consent trail"
      },
      "getConsentingParticipants(string)": {
        "notice": "Get the list of participants that are participating in the study."
      },
      "hasConsented(string,address)": {
        "notice": "Check whether the participant has consented to the use of their sample in this study."
      },
      "owner()": {
        "notice": "Holds the creator's address"
      },
      "withdrawConsentFromStudy(string,address)": {
        "notice": "The centerpiece of dynamic consent.         The sender withdraws consent to the use of their sample in the study."
      }
    },
    "version": 1
  }
}